{
  "abi": [
    {
      "inputs": [],
      "name": "decrement",
      "outputs": [],
      "stateMutability": "nonpayable",
      "type": "function"
    },
    {
      "inputs": [],
      "name": "increment",
      "outputs": [],
      "stateMutability": "nonpayable",
      "type": "function"
    },
    {
      "inputs": [],
      "name": "number",
      "outputs": [
        {
          "internalType": "uint256",
          "name": "",
          "type": "uint256"
        }
      ],
      "stateMutability": "view",
      "type": "function"
    },
    {
      "inputs": [
        {
          "internalType": "uint256",
          "name": "newNumber",
          "type": "uint256"
        }
      ],
      "name": "setNumber",
      "outputs": [],
      "stateMutability": "nonpayable",
      "type": "function"
    }
  ],
  "bytecode": {
    "object": "0x608060405234801561001057600080fd5b50610132806100206000396000f3fe6080604052348015600f57600080fd5b506004361060465760003560e01c80632baeceb714604b5780633fb5c1cb1460535780638381f58a146063578063d09de08a14607d575b600080fd5b60516083565b005b6051605e36600460a4565b600055565b606b60005481565b60405190815260200160405180910390f35b60516097565b60008054908060908360d2565b9190505550565b60008054908060908360e6565b60006020828403121560b557600080fd5b5035919050565b634e487b7160e01b600052601160045260246000fd5b60008160de5760de60bc565b506000190190565b60006001820160f55760f560bc565b506001019056fea2646970667358221220a477e39cab0b9c27ebd0e57c684639ce9c3d7efb3d3e080d7c1f981dc40d76bb64736f6c63430008110033",
    "linkReferences": {}
  },
  "methodIdentifiers": {
    "decrement()": "2baeceb7",
    "increment()": "d09de08a",
    "number()": "8381f58a",
    "setNumber(uint256)": "3fb5c1cb"
  },
  "id": 14
}